S014000065666D33322070726F6A6563742E7333372C
S11300000010002025030000050D0000050D000070
S1130010050D0000050D0000050D0000050D000094
S1130020050D0000050D0000050D0000050D000084
S1130030050D0000050D0000050D0000050D000074
S1130040050D0000050D000091020000050D0000E3
S1130050050D0000050D0000050D0000050D000054
S1130060050D0000050D0000050D0000050D000044
S1130070050D0000050D0000050D0000050D000034
S1130080050D0000050D0000050D0000050D000024
S1130090050D0000050D0000050D0000050D000014
S11300A0050D0000050D0000050D0000050D000004
S11300B0050D0000050D0000050D0000050D0000F4
S11300C0050D0000050D0000050D0000050D0000E4
S11300D0050D0000050D0000050D0000050D0000D4
S11300E00348044B834202D0034B03B118477047C3
S11300F01410002014100020000000000548064BD6
S11301001B1AD90F01EBA301491002D0034B03B111
S1130110184770471410002014100020000000003D
S113012010B5064C237843B9FFF7DAFF044B13B13B
S11301300448AFF300800123237010BD3010002069
S113014000000000100F000008B5054B1BB1054965
S11301500548AFF30080BDE80840FFF7CFBF00BFFC
S11301600000000014100020100F0000A3F5803AD6
S1130170704700BF174B002B08BF134B9D46FFF77A
S1130180F5FF00218B460F461348144A121A00F05B
S1130190C2FD0E4B002B00D098470D4B002B00D016
S11301A098470020002104000D000D48002802D0CB
S11301B00C48AFF3008000F081FD2000290000F01E
S11301C081F800F069FD00BF000008000000000095
S11301D00000000000100020141000203410002043
S11301E000000000000000001FB501210B4800F0D2
S11301F03FFB00244FF4813301A94FF040200193C9
S11302000294ADF80C4000F05FF9012221464FF052
S1130210402000F039F904B010BD00BF0012050001
S11302201FB50121164800F023FB0D2200210DF11A
S1130230010000F070FD01238DF800300A236946A7
S113024010488DF8023000F0C5F90D4800F022FC8A
S11302504FF4A044B0F1A04FB0FBF4F404D340F247
S1130260B441094800F055FD064BDC61DA6842F000
S11302700102DA600422054B1A6004B010BD00BF0D
S11302800052040000000140800D000000E100E085
S113029010B50122094B0A4C9A6122785AB140F6F2
S11302A0FF7200214FF0402000F05AF9237883F0C8
S11302B00103237010BD1146F4E700BF00000140A4
S11302C03110002007B50122134B1A6400F0D4FC4E
S11302D0044601A800F0A8FC0F2C12D99DF80430A4
S11302E0022B0ED99DF80520022A01D1042B08D037
S11302F00A4AD2F8C03023F0500343F01003C2F886
S1130300C030FFF771FFFFF78BFF054A136923F035
S11303100403136130BFF9E700000C4000800C4077
S113032000ED00E008B500F0A1F8124B12498B4231
S113033012D30020114B12498B4218D3FFF71AFF36
S1130340186850F82240586840F8224001329868F2
S11303508242F5D30C33EAE70022F8E71C6844F83C
S1130360220001325C68A242F8D30833E4E7002299
S1130370F8E700BF180F0000240F0000240F00004E
S1130380240F0000254AD36A03F47053B3F5805F49
S11303903AD0B3F5005F04D0B3F5006F0BD1204B16
S11303A000E0204B1B681D4A1068C0F38230013006
S11303B0B3FBF0F07047D36803F4E063B3F5407F18
S11303C025D008D8B3F5807F0ED0B3F5007F20D0B8
S11303D0A3B10023E7E7B3F5806F1CD0B3F5A06F9A
S11303E0114B18BF0023DEE7104B114AD3F8FC1061
S11303F0104BB1F1985F28BF1346D4E70B4B0E4A5C
S1130400D3F8FC100D4BF4E74FF40043CBE70C4B4F
S1130410C9E70C4BC7E70C4BC5E700BF00800C4095
S11304200810002004100020003FAB010081E00F01
S113043040B56400C0CF6A00804F120040420F00F4
S1130440809FD500C0D8A700406F400108B5FFF7D2
S113045099FF044B5B6803F00F03D840024B18600C
S113046008BD00BF00800C4000100020014A024B70
S11304709A6070470000000000ED00E0014B18682E
S1130480704700BF0410002070B5B0F1402F04463F
S11304900D46164603D05A210A4800F03AFC012DB5
S11304A005D95B21074800F034FC0C3402E0002D30
S11304B0FBD1083404F1424404F58014640126603D
S11304C070BD00BFCC0D000038B5B0F1402F05461B
S11304D00C4603D07F211E4800F01BFC00221D4B5C
S11304E02B445B011A601C4B2B445B011A6063783C
S11304F01A4A012B04D0022B26D0D2F8C82001E0DE
S1130500D2F8CC20EA6222781B0243EA0253A27892
S113051043EA0213E27843EA82032279120402F4E2
S1130520E0221343A2790AB143F08003E2790AB1CD
S113053043F04003227A0AB143F00203627A0AB11B
S113054043F001032B6038BDD2F8D020DAE700BFB6
S1130550CC0D0000080010C20C0010C20081E00F96
S113056038B50546144641B101290FD0BDE83840DD
S11305704FF482710A4800F0CCBBB2F5805F03D31C
S1130580F221084800F0C5FB2C6238BDB2F5805F4B
S113059004D340F20711034800F0BBFB6C62F4E79C
S11305A0CC0D0000FB0D0000094B98420DD003F563
S11305B08063984209D003F58063984205D003F51F
S11305C08063C31A5842584170470120704700BFE6
S11305D00000014038B504460D46FFF7E5FF18B9A1
S11305E04F21184800F095FB2A780AB9022363606A
S11305F000236362EB78A9781B0443EA0163697AF8
S11306000B43E97943EA8123297A43EA0123697890
S113061043EA8113A97A43EAC113E97A43EA41130D
S1130620297B43EA0113297943EA4133697943EA8F
S11306300173697B43EAC10323600AB10123636048
S113064038BD00BF450E000008B5194B5B6903F4C3
S1130650E063B3F5407F16D00DD8B3F5807F20D08A
S1130660B3F5007F18D0F3B141F29C61114800F05A
S113067050FB00230EE0B3F5C06F16D0B3F5E06F66
S1130680F2D10D4B06E000F0F7FA0C4B0C4A12289D
S113069088BF1346184608BD00F0EEFA094B0A4A13
S11306A0F5E70A4BF6E70A4BF4E70A4BF2E700BF1B
S11306B000800C40760E0000406F400140420F0065
S11306C0804F1200C0CF6A0040B56400C0D8A700B4
S11306D0809FD500003FAB01034B5A6DD20702D473
S11306E01A6D1042FCD1704700800C4008B500F030
S11306F0CBFA4A2805D0792803D0482818D11048C5
S113070015E010490E48D1F8E030D1F8E820D1F8CE
S1130710EC101B0203F47C53C1F3031102F0F0024A
S11307200B431343084AB3F5017F28BF104608BDA5
S1130730064841F2186100F0ECFA0020F7E700BF28
S11307400048E80100FF0FE000366E01760E00005D
S113075010B50446FFF7CAFFA04207D2FFF7C6FF51
S1130760B4EB400F0ED80122012301E0002213460E
S113077005498B6705494B6823F4807343EA0223D8
S11307804B6010BD0222EFE70000904300800C4054
S113079008B5C0F30313013B0C2B5AD8DFE803F070
S11307A00759590D5959141D4759595917002A4BBE
S11307B01868C0F38230013008BD274B9B6803F0F2
S11307C00F0301209840F7E7234B5B68F7E7224BC0
S11307D05B68C3F300230133F3E7204B984220D036
S11307E00DD81F4B984212D003F58223984213D0A0
S11307F041F62F411B4800F08CFA0120DCE71A4B2C
S11308009842F5D1144B9B6E03F00303D9E7124BC6
S11308109B6EC3F30313D4E70F4B9B6EC3F3032305
S1130820CFE70D4B9B6EC3F301330433C9E70F4B82
S1130830984206D003F50433984205D041F6484166
S1130840D8E7054B1B6FDFE7034B1B6FC3F30113A3
S1130850B7E741F64F41CDE700800C4080002A0005
S113086080161200760E000080062E0090071A00F3
S113087070B5C0F30323013B04460E46092B16D87A
S1130880DFE803F0302C051515272015151CFFF79C
S1130890DDFDFFF75DFF154DC4F3043405F142455A
S11308A005F5801504EBC504A400266070BD41F66F
S11308B0B051BDE870400E4800F02BBA0D4DC0F3A6
S11308C00434EBE7C0F3043410200B4DFFF704FFAE
S11308D0E4E7C0F30434094D0120F7E7084DC0F301
S11308E00434DBE7074DC0F30434D7E740800C4001
S11308F0760E000078800C4060800C4058800C40DC
S113090044800C4008800C4008B500F00F0001380A
S113091006284CD8DFE800F00414254B4B333B0089
S1130920294BDB6A03F47053B3F5805F4AD0B3F507
S1130930005F45D0B3F5006F0CBF0420052008BD4F
S1130940214B986A00F003000228F8D0032835D020
S1130950012837D09B6A13F4803F0CBF01200A2082
S1130960EDE7194A936A03F00C03082B28D00C2BEB
S113097024D0042B26D0936A13F4801FEDE7124B86
S11309801B6813F0805F0CBF07200920D7E70E4BCC
S1130990DB6A03F46033B3F5803F11D0B3F5003F55
S11309A010D0B3F5004F0CBF09200120C7E707485A
S11309B042F2013100F0ADF90020C0E70620BEE7A5
S11309C00220BCE70320BAE700800C40760E00004A
S11309D010B52B4B0446984223D02A4B984213D08F
S11309E041F61311284800F094F92046FFF78CFFD4
S11309F0044641F64211244800F08BF9032C37D801
S1130A00DFE804F03B1C2024FFF77EFF1F4A936AB3
S1130A10C3F38103013B022B27D8DFE803F00F1354
S1130A201700FFF771FF194A936A03F00303013BB0
S1130A30022B12D8DFE803F002060A00BDE81040DA
S1130A4000F061B9BDE81040FFF718BDFFF7FEFCE8
S1130A500F4B9B6F0133D84010BD936A1022D340D3
S1130A600BD0BDE8104000F051B9936A1422F6E7A8
S1130A7041F66D11044800F04CF90020ECE700BF8A
S1130A8002001E0003002000760E000000800C40CF
S1130A900000904338B500F47813B3F5E01F054621
S1130AA000F087802ED8B3F5801F00F0918018D80D
S1130AB0B3F5802F50D006D87BB1B3F5003F53D0A7
S1130AC04FF4F7517FE0B3F5602FF9D15048FFF7A9
S1130AD01BFF07287CD0092873D1BDE83840FFF7F5
S1130AE051BCB3F5B01F43D0B3F5D01F5BD0B3F501
S1130AF0901FE5D14748FFF76BFF474B9B6EC3F34D
S1130B0003132FE0B3F5281F3AD00DD8B3F5001F17
S1130B1047D0B3F5181F5FD0B3F5F01FD0D13D48CF
S1130B20BDE83840FFF754BFB3F5381F31D0B3F5F3
S1130B30781F63D0B3F5301FC2D13648FFF748FFA2
S1130B40354A936EC3F30133D840D36F03F00703E0
S1130B500133B0FBF3F038BDFFF714FC2E4B9B6858
S1130B6003F00F03D840F6E7BDE83840FFF76EBC4A
S1130B702848FFF72DFF284B9B6EC3F30323F1E7AF
S1130B802448FFF725FF244B9B6EC3F30133043342
S1130B90E8E72048FFF71CFF1F4B9B6E03F003039D
S1130BA0E0E71E48BCE71D48FFF712FF1A4B1B6F16
S1130BB0F4E71A48FFF70CFF174B1B6FC3F301133D
S1130BC0D0E741F2D661164800F0A3F80020C2E74E
S1130BD0BDE83840FFF738BD1248FFF795FE0328FB
S1130BE008D009283FF479AF0228EFD1BDE8384096
S1130BF0FFF744BCBDE8384000F085B8FFF726FC99
S1130C0004462846FFF7C4FDB4FBF0F0A3E700BF99
S1130C1006000E0002001E0000800C4003002000AD
S1130C20760E00000723260010B5044618B9572194
S1130C300F4800F06EF80F4AD2F8E430D2F8E01012
S1130C409B0003F03C03C1F381110B43A370D2F862
S1130C50E03003F03F036370D2F8E830D2F8EC20C0
S1130C6003F0F003C2F303121343237010BD00BF5B
S1130C70C00E000000FF0FE0024BD3F8FC00000E92
S1130C80704700BF0081E00F024BD3F8FC00C0F3B3
S1130C90074070470081E00F08B5064B044613B1C6
S1130CA00021AFF30080044B1B6803B19847204632
S1130CB000F030F8000000002C10002070B5002671
S1130CC00C4D0D4C641BA410A64209D100F038F859
S1130CD000260A4D0A4C641BA410A64205D170BD1F
S1130CE055F8043B98470136EEE755F8043B98471E
S1130CF00136F2E70C1000200C1000200C1000202C
S1130D0010100020FEE74FF4004070474FF47A7053
S1130D107047FEE7FEE703460244934200D1704762
S1130D2003F8011BF9E700000000000000000000C8
S1130D3000000000000000000000000000000000AF
S1130D40F8B500BFF8BC08BC9E467047F8B500BFB4
S1130D50F8BC08BC9E46704700000000000000007C
S1130D60000000000000000000000000000000007F
S1130D70000000000000000000000000000000006F
S1130D80633A5C75736572735C746F6E795C7369D6
S1130D906D706C696369747973747564696F5C737D
S1130DA0646B735C6765636B6F5F73646B5C706CBF
S1130DB06174666F726D5C656D6C69625C696E63AB
S1130DC05C656D5F74696D65722E68002E2E2F67E9
S1130DD065636B6F5F73646B5F342E342E352F70D5
S1130DE06C6174666F726D2F656D6C69622F696ECC
S1130DF0632F656D5F6461632E6300633A5C757392
S1130E006572735C746F6E795C73696D706C696321
S1130E1069747973747564696F5C73646B735C670C
S1130E2065636B6F5F73646B5C706C6174666F7227
S1130E306D5C656D6C69625C696E635C656D5F6455
S1130E4061632E68002E2E2F6765636B6F5F73647A
S1130E506B5F342E342E352F706C6174666F726D37
S1130E602F656D6C69622F696E632F656D5F7469A0
S1130E706D65722E6300433A2F55736572732F5458
S1130E804F4E592F53696D706C696369747953744B
S1130E907564696F2F53444B732F6765636B6F5F82
S1130EA073646B2F706C6174666F726D2F656D6CFB
S1130EB069622F7372632F656D5F636D752E6300B6
S1130EC0433A2F55736572732F544F4E592F5369FC
S1130ED06D706C696369747953747564696F2F53A9
S1130EE0444B732F6765636B6F5F73646B2F706C18
S1130EF06174666F726D2F656D6C69622F737263B6
S1130F002F656D5F73797374656D2E630000000047
S10B0F105CF2FF7F0100000008
S10F0F18240F0000001000200500000061
S1130F24809FD50000800000006CDC0249010000B1
S1070F342101000093
S9030325D4
